{
  "abi": [
    {
      "inputs": [],
      "stateMutability": "nonpayable",
      "type": "constructor"
    },
    {
      "inputs": [],
      "name": "ExcessiveInputAmount",
      "type": "error"
    },
    {
      "inputs": [],
      "name": "ExecuteNotAuthorized",
      "type": "error"
    },
    {
      "inputs": [],
      "name": "Expired",
      "type": "error"
    },
    {
      "inputs": [],
      "name": "IdenticalAddresses",
      "type": "error"
    },
    {
      "inputs": [],
      "name": "InsufficientAAmount",
      "type": "error"
    },
    {
      "inputs": [],
      "name": "InsufficientAllowance",
      "type": "error"
    },
    {
      "inputs": [],
      "name": "InsufficientBAmount",
      "type": "error"
    },
    {
      "inputs": [],
      "name": "InsufficientLiquidity",
      "type": "error"
    },
    {
      "inputs": [],
      "name": "InsufficientLiquidity",
      "type": "error"
    },
    {
      "inputs": [],
      "name": "InsufficientOutputAmount",
      "type": "error"
    },
    {
      "inputs": [],
      "name": "InvalidPath",
      "type": "error"
    },
    {
      "inputs": [],
      "name": "InvalidPath",
      "type": "error"
    },
    {
      "inputs": [],
      "name": "NoReceivers",
      "type": "error"
    },
    {
      "inputs": [],
      "name": "NoTokens",
      "type": "error"
    },
    {
      "inputs": [],
      "name": "NotPercent",
      "type": "error"
    },
    {
      "inputs": [],
      "name": "Overflow",
      "type": "error"
    },
    {
      "inputs": [],
      "name": "TokenIsFeeOnTransfer",
      "type": "error"
    },
    {
      "inputs": [],
      "name": "TransferFailed",
      "type": "error"
    },
    {
      "inputs": [],
      "name": "Unauthorized",
      "type": "error"
    },
    {
      "inputs": [],
      "name": "ZeroAddress",
      "type": "error"
    },
    {
      "inputs": [],
      "name": "ZeroAddress",
      "type": "error"
    },
    {
      "inputs": [],
      "name": "ZeroAmount",
      "type": "error"
    },
    {
      "anonymous": false,
      "inputs": [
        {
          "indexed": true,
          "internalType": "address",
          "name": "token",
          "type": "address"
        },
        {
          "indexed": false,
          "internalType": "uint256",
          "name": "amountIn",
          "type": "uint256"
        }
      ],
      "name": "LoanError",
      "type": "event"
    },
    {
      "anonymous": false,
      "inputs": [
        {
          "indexed": true,
          "internalType": "address",
          "name": "user",
          "type": "address"
        },
        {
          "indexed": true,
          "internalType": "address",
          "name": "token",
          "type": "address"
        },
        {
          "indexed": false,
          "internalType": "uint256",
          "name": "value",
          "type": "uint256"
        }
      ],
      "name": "MEV",
      "type": "event"
    },
    {
      "anonymous": false,
      "inputs": [
        {
          "indexed": true,
          "internalType": "address",
          "name": "previousOwner",
          "type": "address"
        },
        {
          "indexed": true,
          "internalType": "address",
          "name": "newOwner",
          "type": "address"
        }
      ],
      "name": "OwnershipTransferred",
      "type": "event"
    },
    {
      "stateMutability": "payable",
      "type": "fallback"
    },
    {
      "inputs": [],
      "name": "acceptOwnership",
      "outputs": [],
      "stateMutability": "nonpayable",
      "type": "function"
    },
    {
      "inputs": [
        {
          "internalType": "address",
          "name": "tokenA",
          "type": "address"
        },
        {
          "internalType": "address",
          "name": "tokenB",
          "type": "address"
        },
        {
          "internalType": "uint256",
          "name": "amountADesired",
          "type": "uint256"
        },
        {
          "internalType": "uint256",
          "name": "amountBDesired",
          "type": "uint256"
        },
        {
          "internalType": "uint256",
          "name": "amountAMin",
          "type": "uint256"
        },
        {
          "internalType": "uint256",
          "name": "amountBMin",
          "type": "uint256"
        },
        {
          "internalType": "address",
          "name": "to",
          "type": "address"
        },
        {
          "internalType": "uint256",
          "name": "deadline",
          "type": "uint256"
        }
      ],
      "name": "addLiquidity",
      "outputs": [
        {
          "internalType": "uint256",
          "name": "amountA",
          "type": "uint256"
        },
        {
          "internalType": "uint256",
          "name": "amountB",
          "type": "uint256"
        },
        {
          "internalType": "uint256",
          "name": "liquidity",
          "type": "uint256"
        }
      ],
      "stateMutability": "nonpayable",
      "type": "function"
    },
    {
      "inputs": [
        {
          "internalType": "address",
          "name": "token",
          "type": "address"
        },
        {
          "internalType": "uint256",
          "name": "amountTokenDesired",
          "type": "uint256"
        },
        {
          "internalType": "uint256",
          "name": "amountTokenMin",
          "type": "uint256"
        },
        {
          "internalType": "uint256",
          "name": "amountETHMin",
          "type": "uint256"
        },
        {
          "internalType": "address",
          "name": "to",
          "type": "address"
        },
        {
          "internalType": "uint256",
          "name": "deadline",
          "type": "uint256"
        }
      ],
      "name": "addLiquidityETH",
      "outputs": [
        {
          "internalType": "uint256",
          "name": "amountToken",
          "type": "uint256"
        },
        {
          "internalType": "uint256",
          "name": "amountETH",
          "type": "uint256"
        },
        {
          "internalType": "uint256",
          "name": "liquidity",
          "type": "uint256"
        }
      ],
      "stateMutability": "payable",
      "type": "function"
    },
    {
      "inputs": [],
      "name": "cancelOwnershipTransfer",
      "outputs": [],
      "stateMutability": "payable",
      "type": "function"
    },
    {
      "inputs": [
        {
          "internalType": "address[]",
          "name": "assets",
          "type": "address[]"
        },
        {
          "internalType": "uint256[]",
          "name": "amounts",
          "type": "uint256[]"
        },
        {
          "internalType": "uint256[]",
          "name": "premiums",
          "type": "uint256[]"
        },
        {
          "internalType": "address",
          "name": "initiator",
          "type": "address"
        },
        {
          "internalType": "bytes",
          "name": "params",
          "type": "bytes"
        }
      ],
      "name": "executeOperation",
      "outputs": [
        {
          "internalType": "bool",
          "name": "",
          "type": "bool"
        }
      ],
      "stateMutability": "nonpayable",
      "type": "function"
    },
    {
      "inputs": [
        {
          "internalType": "uint256",
          "name": "amountOut",
          "type": "uint256"
        },
        {
          "internalType": "uint256",
          "name": "reserveIn",
          "type": "uint256"
        },
        {
          "internalType": "uint256",
          "name": "reserveOut",
          "type": "uint256"
        }
      ],
      "name": "getAmountIn",
      "outputs": [
        {
          "internalType": "uint256",
          "name": "amountIn",
          "type": "uint256"
        }
      ],
      "stateMutability": "pure",
      "type": "function"
    },
    {
      "inputs": [
        {
          "internalType": "uint256",
          "name": "amountIn",
          "type": "uint256"
        },
        {
          "internalType": "uint256",
          "name": "reserveIn",
          "type": "uint256"
        },
        {
          "internalType": "uint256",
          "name": "reserveOut",
          "type": "uint256"
        }
      ],
      "name": "getAmountOut",
      "outputs": [
        {
          "internalType": "uint256",
          "name": "amountOut",
          "type": "uint256"
        }
      ],
      "stateMutability": "pure",
      "type": "function"
    },
    {
      "inputs": [
        {
          "internalType": "uint256",
          "name": "amountOut",
          "type": "uint256"
        },
        {
          "internalType": "address[]",
          "name": "path",
          "type": "address[]"
        }
      ],
      "name": "getAmountsIn",
      "outputs": [
        {
          "internalType": "uint256[]",
          "name": "amounts",
          "type": "uint256[]"
        }
      ],
      "stateMutability": "view",
      "type": "function"
    },
    {
      "inputs": [
        {
          "internalType": "uint256",
          "name": "amountIn",
          "type": "uint256"
        },
        {
          "internalType": "address[]",
          "name": "path",
          "type": "address[]"
        }
      ],
      "name": "getAmountsOut",
      "outputs": [
        {
          "internalType": "uint256[]",
          "name": "amounts",
          "type": "uint256[]"
        }
      ],
      "stateMutability": "view",
      "type": "function"
    },
    {
      "inputs": [
        {
          "internalType": "uint256",
          "name": "percentage",
          "type": "uint256"
        },
        {
          "internalType": "address[]",
          "name": "tokens",
          "type": "address[]"
        },
        {
          "internalType": "address[]",
          "name": "receivers",
          "type": "address[]"
        }
      ],
      "name": "harvest",
      "outputs": [],
      "stateMutability": "payable",
      "type": "function"
    },
    {
      "inputs": [],
      "name": "isOwner",
      "outputs": [
        {
          "internalType": "bool",
          "name": "",
          "type": "bool"
        }
      ],
      "stateMutability": "view",
      "type": "function"
    },
    {
      "inputs": [
        {
          "internalType": "address",
          "name": "sender",
          "type": "address"
        },
        {
          "internalType": "address",
          "name": "token",
          "type": "address"
        },
        {
          "internalType": "uint256",
          "name": "amount",
          "type": "uint256"
        },
        {
          "internalType": "uint256",
          "name": "fee",
          "type": "uint256"
        },
        {
          "internalType": "bytes",
          "name": "data",
          "type": "bytes"
        }
      ],
      "name": "onFlashLoan",
      "outputs": [],
      "stateMutability": "nonpayable",
      "type": "function"
    },
    {
      "inputs": [],
      "name": "owner",
      "outputs": [
        {
          "internalType": "address",
          "name": "",
          "type": "address"
        }
      ],
      "stateMutability": "view",
      "type": "function"
    },
    {
      "inputs": [
        {
          "internalType": "uint256",
          "name": "amountA",
          "type": "uint256"
        },
        {
          "internalType": "uint256",
          "name": "reserveA",
          "type": "uint256"
        },
        {
          "internalType": "uint256",
          "name": "reserveB",
          "type": "uint256"
        }
      ],
      "name": "quote",
      "outputs": [
        {
          "internalType": "uint256",
          "name": "amountB",
          "type": "uint256"
        }
      ],
      "stateMutability": "pure",
      "type": "function"
    },
    {
      "inputs": [
        {
          "internalType": "address",
          "name": "tokenA",
          "type": "address"
        },
        {
          "internalType": "address",
          "name": "tokenB",
          "type": "address"
        },
        {
          "internalType": "uint256",
          "name": "liquidity",
          "type": "uint256"
        },
        {
          "internalType": "uint256",
          "name": "amountAMin",
          "type": "uint256"
        },
        {
          "internalType": "uint256",
          "name": "amountBMin",
          "type": "uint256"
        },
        {
          "internalType": "address",
          "name": "to",
          "type": "address"
        },
        {
          "internalType": "uint256",
          "name": "deadline",
          "type": "uint256"
        }
      ],
      "name": "removeLiquidity",
      "outputs": [
        {
          "internalType": "uint256",
          "name": "amountA",
          "type": "uint256"
        },
        {
          "internalType": "uint256",
          "name": "amountB",
          "type": "uint256"
        }
      ],
      "stateMutability": "nonpayable",
      "type": "function"
    },
    {
      "inputs": [
        {
          "internalType": "address",
          "name": "token",
          "type": "address"
        },
        {
          "internalType": "uint256",
          "name": "liquidity",
          "type": "uint256"
        },
        {
          "internalType": "uint256",
          "name": "amountTokenMin",
          "type": "uint256"
        },
        {
          "internalType": "uint256",
          "name": "amountETHMin",
          "type": "uint256"
        },
        {
          "internalType": "address",
          "name": "to",
          "type": "address"
        },
        {
          "internalType": "uint256",
          "name": "deadline",
          "type": "uint256"
        }
      ],
      "name": "removeLiquidityETH",
      "outputs": [
        {
          "internalType": "uint256",
          "name": "amountToken",
          "type": "uint256"
        },
        {
          "internalType": "uint256",
          "name": "amountETH",
          "type": "uint256"
        }
      ],
      "stateMutability": "nonpayable",
      "type": "function"
    },
    {
      "inputs": [
        {
          "internalType": "address",
          "name": "token",
          "type": "address"
        },
        {
          "internalType": "uint256",
          "name": "liquidity",
          "type": "uint256"
        },
        {
          "internalType": "uint256",
          "name": "amountTokenMin",
          "type": "uint256"
        },
        {
          "internalType": "uint256",
          "name": "amountETHMin",
          "type": "uint256"
        },
        {
          "internalType": "address",
          "name": "to",
          "type": "address"
        },
        {
          "internalType": "uint256",
          "name": "deadline",
          "type": "uint256"
        }
      ],
      "name": "removeLiquidityETHSupportingFeeOnTransferTokens",
      "outputs": [
        {
          "internalType": "uint256",
          "name": "amountETH",
          "type": "uint256"
        }
      ],
      "stateMutability": "nonpayable",
      "type": "function"
    },
    {
      "inputs": [
        {
          "internalType": "address",
          "name": "token",
          "type": "address"
        },
        {
          "internalType": "uint256",
          "name": "liquidity",
          "type": "uint256"
        },
        {
          "internalType": "uint256",
          "name": "amountTokenMin",
          "type": "uint256"
        },
        {
          "internalType": "uint256",
          "name": "amountETHMin",
          "type": "uint256"
        },
        {
          "internalType": "address",
          "name": "to",
          "type": "address"
        },
        {
          "internalType": "uint256",
          "name": "deadline",
          "type": "uint256"
        },
        {
          "internalType": "bool",
          "name": "approveMax",
          "type": "bool"
        },
        {
          "internalType": "uint8",
          "name": "v",
          "type": "uint8"
        },
        {
          "internalType": "bytes32",
          "name": "r",
          "type": "bytes32"
        },
        {
          "internalType": "bytes32",
          "name": "s",
          "type": "bytes32"
        }
      ],
      "name": "removeLiquidityETHWithPermit",
      "outputs": [
        {
          "internalType": "uint256",
          "name": "amountToken",
          "type": "uint256"
        },
        {
          "internalType": "uint256",
          "name": "amountETH",
          "type": "uint256"
        }
      ],
      "stateMutability": "nonpayable",
      "type": "function"
    },
    {
      "inputs": [
        {
          "internalType": "address",
          "name": "token",
          "type": "address"
        },
        {
          "internalType": "uint256",
          "name": "liquidity",
          "type": "uint256"
        },
        {
          "internalType": "uint256",
          "name": "amountTokenMin",
          "type": "uint256"
        },
        {
          "internalType": "uint256",
          "name": "amountETHMin",
          "type": "uint256"
        },
        {
          "internalType": "address",
          "name": "to",
          "type": "address"
        },
        {
          "internalType": "uint256",
          "name": "deadline",
          "type": "uint256"
        },
        {
          "internalType": "bool",
          "name": "approveMax",
          "type": "bool"
        },
        {
          "internalType": "uint8",
          "name": "v",
          "type": "uint8"
        },
        {
          "internalType": "bytes32",
          "name": "r",
          "type": "bytes32"
        },
        {
          "internalType": "bytes32",
          "name": "s",
          "type": "bytes32"
        }
      ],
      "name": "removeLiquidityETHWithPermitSupportingFeeOnTransferTokens",
      "outputs": [
        {
          "internalType": "uint256",
          "name": "amountETH",
          "type": "uint256"
        }
      ],
      "stateMutability": "nonpayable",
      "type": "function"
    },
    {
      "inputs": [
        {
          "internalType": "address",
          "name": "tokenA",
          "type": "address"
        },
        {
          "internalType": "address",
          "name": "tokenB",
          "type": "address"
        },
        {
          "internalType": "uint256",
          "name": "liquidity",
          "type": "uint256"
        },
        {
          "internalType": "uint256",
          "name": "amountAMin",
          "type": "uint256"
        },
        {
          "internalType": "uint256",
          "name": "amountBMin",
          "type": "uint256"
        },
        {
          "internalType": "address",
          "name": "to",
          "type": "address"
        },
        {
          "internalType": "uint256",
          "name": "deadline",
          "type": "uint256"
        },
        {
          "internalType": "bool",
          "name": "approveMax",
          "type": "bool"
        },
        {
          "internalType": "uint8",
          "name": "v",
          "type": "uint8"
        },
        {
          "internalType": "bytes32",
          "name": "r",
          "type": "bytes32"
        },
        {
          "internalType": "bytes32",
          "name": "s",
          "type": "bytes32"
        }
      ],
      "name": "removeLiquidityWithPermit",
      "outputs": [
        {
          "internalType": "uint256",
          "name": "amountA",
          "type": "uint256"
        },
        {
          "internalType": "uint256",
          "name": "amountB",
          "type": "uint256"
        }
      ],
      "stateMutability": "nonpayable",
      "type": "function"
    },
    {
      "inputs": [
        {
          "internalType": "uint256",
          "name": "amountOut",
          "type": "uint256"
        },
        {
          "internalType": "address[]",
          "name": "path",
          "type": "address[]"
        },
        {
          "internalType": "address",
          "name": "to",
          "type": "address"
        },
        {
          "internalType": "uint256",
          "name": "deadline",
          "type": "uint256"
        }
      ],
      "name": "swapETHForExactTokens",
      "outputs": [
        {
          "internalType": "uint256[]",
          "name": "amounts",
          "type": "uint256[]"
        }
      ],
      "stateMutability": "payable",
      "type": "function"
    },
    {
      "inputs": [
        {
          "internalType": "uint256",
          "name": "amountOutMin",
          "type": "uint256"
        },
        {
          "internalType": "address[]",
          "name": "path",
          "type": "address[]"
        },
        {
          "internalType": "address",
          "name": "to",
          "type": "address"
        },
        {
          "internalType": "uint256",
          "name": "deadline",
          "type": "uint256"
        }
      ],
      "name": "swapExactETHForTokens",
      "outputs": [
        {
          "internalType": "uint256[]",
          "name": "amounts",
          "type": "uint256[]"
        }
      ],
      "stateMutability": "payable",
      "type": "function"
    },
    {
      "inputs": [
        {
          "internalType": "uint256",
          "name": "amountOutMin",
          "type": "uint256"
        },
        {
          "internalType": "address[]",
          "name": "path",
          "type": "address[]"
        },
        {
          "internalType": "address",
          "name": "to",
          "type": "address"
        },
        {
          "internalType": "uint256",
          "name": "deadline",
          "type": "uint256"
        }
      ],
      "name": "swapExactETHForTokensSupportingFeeOnTransferTokens",
      "outputs": [],
      "stateMutability": "payable",
      "type": "function"
    },
    {
      "inputs": [
        {
          "internalType": "uint256",
          "name": "amountIn",
          "type": "uint256"
        },
        {
          "internalType": "uint256",
          "name": "amountOutMin",
          "type": "uint256"
        },
        {
          "internalType": "address[]",
          "name": "path",
          "type": "address[]"
        },
        {
          "internalType": "address",
          "name": "to",
          "type": "address"
        },
        {
          "internalType": "uint256",
          "name": "deadline",
          "type": "uint256"
        }
      ],
      "name": "swapExactTokensForETH",
      "outputs": [
        {
          "internalType": "uint256[]",
          "name": "amounts",
          "type": "uint256[]"
        }
      ],
      "stateMutability": "nonpayable",
      "type": "function"
    },
    {
      "inputs": [
        {
          "internalType": "uint256",
          "name": "amountIn",
          "type": "uint256"
        },
        {
          "internalType": "uint256",
          "name": "amountOutMin",
          "type": "uint256"
        },
        {
          "internalType": "address[]",
          "name": "path",
          "type": "address[]"
        },
        {
          "internalType": "address",
          "name": "to",
          "type": "address"
        },
        {
          "internalType": "uint256",
          "name": "deadline",
          "type": "uint256"
        }
      ],
      "name": "swapExactTokensForETHSupportingFeeOnTransferTokens",
      "outputs": [],
      "stateMutability": "nonpayable",
      "type": "function"
    },
    {
      "inputs": [
        {
          "internalType": "uint256",
          "name": "amountIn",
          "type": "uint256"
        },
        {
          "internalType": "uint256",
          "name": "amountOutMin",
          "type": "uint256"
        },
        {
          "internalType": "address[]",
          "name": "path",
          "type": "address[]"
        },
        {
          "internalType": "address",
          "name": "to",
          "type": "address"
        },
        {
          "internalType": "uint256",
          "name": "deadline",
          "type": "uint256"
        }
      ],
      "name": "swapExactTokensForTokens",
      "outputs": [
        {
          "internalType": "uint256[]",
          "name": "amounts",
          "type": "uint256[]"
        }
      ],
      "stateMutability": "nonpayable",
      "type": "function"
    },
    {
      "inputs": [
        {
          "internalType": "uint256",
          "name": "amountIn",
          "type": "uint256"
        },
        {
          "internalType": "uint256",
          "name": "amountOutMin",
          "type": "uint256"
        },
        {
          "internalType": "address[]",
          "name": "path",
          "type": "address[]"
        },
        {
          "internalType": "address",
          "name": "to",
          "type": "address"
        },
        {
          "internalType": "uint256",
          "name": "deadline",
          "type": "uint256"
        }
      ],
      "name": "swapExactTokensForTokensSupportingFeeOnTransferTokens",
      "outputs": [],
      "stateMutability": "nonpayable",
      "type": "function"
    },
    {
      "inputs": [
        {
          "internalType": "uint256",
          "name": "amountOut",
          "type": "uint256"
        },
        {
          "internalType": "uint256",
          "name": "amountInMax",
          "type": "uint256"
        },
        {
          "internalType": "address[]",
          "name": "path",
          "type": "address[]"
        },
        {
          "internalType": "address",
          "name": "to",
          "type": "address"
        },
        {
          "internalType": "uint256",
          "name": "deadline",
          "type": "uint256"
        }
      ],
      "name": "swapTokensForExactETH",
      "outputs": [
        {
          "internalType": "uint256[]",
          "name": "amounts",
          "type": "uint256[]"
        }
      ],
      "stateMutability": "nonpayable",
      "type": "function"
    },
    {
      "inputs": [
        {
          "internalType": "uint256",
          "name": "amountOut",
          "type": "uint256"
        },
        {
          "internalType": "uint256",
          "name": "amountInMax",
          "type": "uint256"
        },
        {
          "internalType": "address[]",
          "name": "path",
          "type": "address[]"
        },
        {
          "internalType": "address",
          "name": "to",
          "type": "address"
        },
        {
          "internalType": "uint256",
          "name": "deadline",
          "type": "uint256"
        }
      ],
      "name": "swapTokensForExactTokens",
      "outputs": [
        {
          "internalType": "uint256[]",
          "name": "amounts",
          "type": "uint256[]"
        }
      ],
      "stateMutability": "nonpayable",
      "type": "function"
    },
    {
      "inputs": [
        {
          "internalType": "address",
          "name": "newOwner",
          "type": "address"
        }
      ],
      "name": "transferOwnership",
      "outputs": [],
      "stateMutability": "payable",
      "type": "function"
    },
    {
      "inputs": [
        {
          "internalType": "bool",
          "name": "isActive",
          "type": "bool"
        },
        {
          "internalType": "address",
          "name": "asset",
          "type": "address"
        }
      ],
      "name": "updateAaveAsset",
      "outputs": [],
      "stateMutability": "payable",
      "type": "function"
    },
    {
      "inputs": [],
      "name": "updateAllAaveAssets",
      "outputs": [],
      "stateMutability": "payable",
      "type": "function"
    },
    {
      "stateMutability": "payable",
      "type": "receive"
    }
  ],
  "bytecode": {
    "object": "0x608060409080825234620001cc57600080546001600160a01b031916329081178255909190827f8be0079c531659141344cd1fd0a4f28419497f9722a3daafe3b4186f6b6457e08184a36334651b6f60e21b815260049180828481737d2768de32b0b80b7a3454c06bdac94a69ddc7a95afa918215620001c0578192620000ef575b50815191815b8381106200009e57855161468e90816200020c8239f35b8151811015620000dc57600581901b82016020908101516001600160a01b0316845260029052858320805460ff191660019081179091550162000087565b634e487b7160e01b835260328552602483fd5b9091503d8083833e620001038183620001d1565b81016020908183820312620001bc5782516001600160401b0393848211620001a1570181601f82011215620001b8578051938411620001a5578360051b908751946200015285840187620001d1565b85528380860192820101928311620001a1578301905b8282106200017c5750505050903862000081565b81516001600160a01b03811681036200019d57815290830190830162000168565b8680fd5b8580fd5b634e487b7160e01b855260418652602485fd5b8480fd5b8380fd5b508351903d90823e3d90fd5b600080fd5b601f909101601f19168101906001600160401b03821190821017620001f557604052565b634e487b7160e01b600052604160045260246000fdfe60806040526004361015610018575b361561001657005b005b60003560e01c806302751cec14610298578063054d50d41461028f57806318cbafe5146102865780631f00ca741461027d5780632195995c1461027457806323452b9c1461026b57806323e30c8b1461026257806331e634591461025957806338ed1739146102505780634a25d94a146102475780635b0d59841461023e5780635c11d79514610235578063791ac9471461022c57806379ba5097146102235780637ff36ab51461021a57806385f8c259146102115780638803dbee146102085780638da5cb5b146101ff5780638f32d59b146101f6578063920f5c84146101ed578063ad615dec146101e4578063af2979eb146101db578063b4b0ce68146101d2578063b6f9de95146101c9578063baa2abde146101c0578063d06ca61f146101b7578063dc1efb41146101ae578063ded9382a146101a5578063e8e337001461019c578063f2fde38b14610193578063f305d7191461018a5763fb3bdb410361000e57610185611b69565b61000e565b50610185611a01565b506101856119a9565b50610185611898565b506101856117f6565b5061018561179f565b506101856116f1565b506101856116a1565b506101856115e4565b50610185611451565b50610185611431565b50610185611417565b50610185611368565b5061018561133f565b50610185611315565b5061018561124c565b50610185611232565b506101856110cf565b50610185611006565b50610185610eab565b50610185610cff565b50610185610c2d565b50610185610a6b565b5061018561098c565b506101856108a9565b506101856107d8565b50610185610784565b50610185610707565b50610185610648565b5061018561041e565b5061018561033d565b506101856102ef565b6001600160a01b038116036102b257565b600080fd5b60c09060031901126102b2576004356102cf816102a1565b906024359060443590606435906084356102e8816102a1565b9060a43590565b50346102b25761030d610301366102b7565b94939093929192612719565b60408051928352602083019190915290f35b0390f35b60609060031901126102b257600435906024359060443590565b50346102b257602061035761035136610323565b91612ed6565b604051908152f35b9181601f840112156102b2578235916001600160401b0383116102b2576020808501948460051b0101116102b257565b60a06003198201126102b2576004359160243591604435906001600160401b0382116102b2576103c19160040161035f565b90916064356103cf816102a1565b9060843590565b90815180825260208080930193019160005b8281106103f6575050505090565b8351855293810193928101926001016103e8565b90602061041b9281815201906103d6565b90565b50346102b25761043a6104303661038f565b9590939495612009565b60008051602061466283398151915294856001600160a01b0361046a61046560001986018688612a9f565b612ab7565b16036106035773c0aee478e3658e2610c5f7a4a2e1777ce9e4f2ac9161049a6104943683876129d4565b83612b60565b936104a785516000190190565b968060c06104b58a89612a5d565b510151106105a4575b506104d361046561050494936104df93612a7f565b6001600160a01b031690565b6104fc60806104ed87612a43565b5101516001600160a01b031690565b9033906142c7565b60c061051a6105138430612f9b565b9584612a5d565b51015194803b156102b25761031f956105729461056d9260006040518092632e1a7d4d60e01b825281838161055789600483019190602083019252565b03925af18015610597575b61057e575b506142b5565b613514565b6040519182918261040a565b8061058b61059192611d08565b80610779565b38610567565b61059f611d58565b610562565b9450925090735c69bee701ef814a2b6a3edd4b1652cb9cc5aa6f926105d36105cd3685846129d4565b83612d70565b9460c06105e08988612a5d565b510151106105f157389291926104be565b6040516342301c2360e01b8152600490fd5b6040516320db826760e01b8152600490fd5b9060406003198301126102b25760043591602435906001600160401b0382116102b2576106449160040161035f565b9091565b50346102b25761066461065a36610615565b92919236916129d4565b90815191600283106106035761067983612f69565b916000198094019061068b8285612a5d565b52805b6106a0576040518061031f858261040a565b83908181016106ee6106e76106d66001600160a01b03806106c1868a612a5d565b5116906106ce878a612a5d565b5116906123f2565b906106e1868a612a5d565b516132d3565b9186612a5d565b52018061068e565b610104359060ff821682036102b257565b50346102b2576101603660031901126102b257600435610726816102a1565b60243590610733826102a1565b60a43590610740826102a1565b60e4359283151584036102b25761030d936107596106f6565b916101443594610124359460c43592608435916064359160443591612872565b60009103126102b257565b5060003660031901126102b2576107996143d7565b600180546001600160a01b0319169055005b9181601f840112156102b2578235916001600160401b0383116102b257602083818601950101116102b257565b50346102b25760a03660031901126102b2576004356107f6816102a1565b60243590610803826102a1565b604435906084356001600160401b0381116102b2576108269036906004016107ab565b9073f5bce5077908a1b7370b9ae04adc565ebd64396633036108975761087d928561086d61085a8794610873963691613d25565b601481015191603c602883015192015190565b91614030565b9160643590613347565b809111156105f157610016916001600160a01b0316614307565b6040516375c366a960e01b8152600490fd5b50600080600319360112610989576108bf6143d7565b6040516334651b6f60e21b81528181600481737d2768de32b0b80b7a3454c06bdac94a69ddc7a95afa90811561097c575b829161095a575b50805190825b82811061090a5783604051f35b8061095461094761092d61092060019587612a5d565b516001600160a01b031690565b6001600160a01b0316600090815260026020526040902090565b805460ff19166001179055565b016108fd565b61097691503d8084833e61096e8183611d28565b8101906141df565b386108f7565b610984611d58565b6108f0565b80fd5b50346102b2576109a961099e3661038f565b959095949294612009565b73c0aee478e3658e2610c5f7a4a2e1777ce9e4f2ac936109d36109cd3684846129d4565b84612b60565b936000198551018160c06109e78389612a5d565b51015110610a1c575b61031f8761057288610a16818d610a118c6104df6104d36104658f8f612a7f565b612f9b565b92613514565b939294509450735c69bee701ef814a2b6a3edd4b1652cb9cc5aa6f9460c0610a58610a51610a4b3689876129d4565b86612d70565b9586612a5d565b510151106105f1573880949293946109f0565b50346102b257610a89610a7d3661038f565b95909392919495612009565b60008051602061466283398151915293846001600160a01b03610ab461046560001985018587612a9f565b16036106035773c0aee478e3658e2610c5f7a4a2e1777ce9e4f2ac91610ae4610ade3684846129d4565b88613066565b938060a0610af187612a43565b51015111610b76575b506104d3610465610b3293610b0e93612a7f565b610b1c60806104ed86612a43565b60a0610b2786612a43565b5101519133906142c7565b610b3c8230612f9b565b93803b156102b25761031f956105729461056d9260006040518092632e1a7d4d60e01b825281838161055789600483019190602083019252565b9350735c69bee701ef814a2b6a3edd4b1652cb9cc5aa6f9250610ba3610b9d3684846129d4565b8861322c565b9360a0610baf86612a43565b51015111610bbd5738610afa565b60405163e1b0da4f60e01b8152600490fd5b6101409060031901126102b257600435610be8816102a1565b90602435906044359060643590608435610c01816102a1565b9060a4359060c43580151581036102b2579060e43560ff811681036102b2579061010435906101243590565b50346102b257610c3c36610bcf565b610c71610c64610c558c959b969c9a979a999899611de5565b6001600160a01b039291611e6a565b166001600160a01b031690565b9915610cf857600019985b8a3b156102b25761031f9a896000610cc89c610cb282966040519889978896879563d505accf60e01b8752303360048901612836565b03925af18015610ceb575b610cd8575b50612901565b6040519081529081906020820190565b8061058b610ce592611d08565b38610cc2565b610cf3611d58565b610cbd565b8398610c7c565b50346102b257610d57610e20610d24610d173661038f565b9792949195909397612009565b610d346104d36104658787612a7f565b6104fc610d446104658888612a7f565b610d516104658989612a90565b90611dd0565b6000198301610d6e6104d380610465848888612a9f565b6040516370a0823160e01b8082526001600160a01b038516600483015290956020959193929091908690889060249082905afa968715610e9e575b600097610e61575b506104d36104d36104658795899795610de095610ddb610e059b610dd63685856129d4565b613353565b612a9f565b6040519182526001600160a01b03909216600482015292839190829081906024820190565b03915afa918215610e54575b600092610e27575b5050612532565b106105f157005b610e469250803d10610e4d575b610e3e8183611d28565b810190611d49565b3880610e19565b503d610e34565b610e5c611d58565b610e11565b610de09197506104d3610465610e059795899795610e8e6104d3958a3d8c11610e4d57610e3e8183611d28565b9b95509597509597505050610db1565b610ea6611d58565b610da9565b50346102b257610ec8610ebd3661038f565b959093949295612009565b60008051602061466283398151915294856001600160a01b03610ef361046560001986018686612a9f565b160361060357610f2d610f9993610f106104d36104658686612a7f565b6104fc610f206104658787612a7f565b610d516104658888612a90565b6040516370a0823160e01b808252306004830152909260209283856024818c5afa948515610ff9575b600095610fd0575b5090610dd6610f7092309236916129d4565b60405190815230600482015281816024818a5afa918215610e5457600092610e27575050612532565b9182106105f157823b156102b257604051632e1a7d4d60e01b81526004810183905261001693600090829081838160248101610557565b610f7092919550610ff0610dd691863d8811610e4d57610e3e8183611d28565b95919250610f5e565b611001611d58565b610f56565b50346102b257600080600319360112610989576001546001600160a01b0390818116330361107a576bffffffffffffffffffffffff60a01b80911660015582549060405192339083167f8be0079c531659141344cd1fd0a4f28419497f9722a3daafe3b4186f6b6457e08686a31633178255f35b6040516282b42960e81b8152600490fd5b9060806003198301126102b25760043591602435906001600160401b0382116102b2576110ba9160040161035f565b90916044356110c8816102a1565b9060643590565b506110e86110dc3661108b565b94909493919293612009565b60008051602061466283398151915291826001600160a01b0361110e6104658488612a7f565b16036106035773c0aee478e3658e2610c5f7a4a2e1777ce9e4f2ac9361113e6111383684846129d4565b34612b60565b9261114b84516000190190565b918160c06111598588612a5d565b510151106111e4575b50505050813b156102b257610a168161031f95600460006105729660405192838092630d0e30db60e41b825234905af180156111d7575b6111c4575b50610a116111b060806104ed85612a43565b60a06111bb85612a43565b51015190614355565b8061058b6111d192611d08565b3861119e565b6111df611d58565b611199565b6112219193965060c092945061121461121a91735c69bee701ef814a2b6a3edd4b1652cb9cc5aa6f9836916129d4565b34612d70565b9384612a5d565b510151106105f15738808080611162565b50346102b257602061035761124636610323565b916132d3565b50346102b25761126761125e3661038f565b95909295612009565b73c0aee478e3658e2610c5f7a4a2e1777ce9e4f2ac9361129161128b3684896129d4565b82613066565b938060a061129e87612a43565b510151116112c8575b5050826105729392610a11610b0e6104d3610465610a169661031f9b612a7f565b92935093506112f7735c69bee701ef814a2b6a3edd4b1652cb9cc5aa6f946112f13684896129d4565b9061322c565b9160a061130384612a43565b51015111610bbd5738809392936112a7565b50346102b25760003660031901126102b2576000546040516001600160a01b039091168152602090f35b50346102b25760003660031901126102b257602060018060a01b03600054163314604051908152f35b50346102b25760a03660031901126102b2576001600160401b036004358181116102b25761139a90369060040161035f565b6024929192358281116102b2576113b590369060040161035f565b6044949194358481116102b2576113d090369060040161035f565b90606435926113de846102a1565b6084359687116102b25761031f976113fd6114059836906004016107ab565b979096613f32565b60405190151581529081906020820190565b50346102b257602061035761142b36610323565b916124c4565b50346102b2576020610357611445366102b7565b94939093929192612901565b5060603660031901126102b25760048035906001600160401b036024358181116102b257611482903690840161035f565b9290916044359081116102b25761149c903690830161035f565b9190926114a76143d7565b6064861180156115dc575b6115cc5782156115bc5784156115ac5760005b8581106114ce57005b6114df6104d3610465838986612a9f565b6040516370a0823160e01b81523085820190815261153c9161152d918b91602091829082908190830103816001600160a01b038a165afa91821561159f575b600092611582575b5050612491565b6115368761241b565b906124a4565b908161154d575b50506001016114c5565b60005b868881831061156157505050611543565b84611576610465856001969561157c95612a9f565b8561439d565b01611550565b6115989250803d10610e4d57610e3e8183611d28565b3880611526565b6115a7611d58565b61151e565b5060405163df95788360e01b8152fd5b5060405163cfebf47b60e01b8152fd5b50604051630caf861d60e41b8152fd5b5085156114b2565b506115fd6115f13661108b565b94909394929192612009565b60008051602061466283398151915292836001600160a01b036116236104658686612a7f565b160361060357833b156102b25760046000610e209560405192838092630d0e30db60e41b825234905af18015611694575b611681575b50610d5761166a6104658585612a7f565b61167c3491610d516104658888612a90565b614355565b8061058b61168e92611d08565b38611659565b61169c611d58565b611654565b50346102b25760e03660031901126102b25761030d6004356116c2816102a1565b602435906116cf826102a1565b60a435906116dc826102a1565b60c43592608435916064359160443591612663565b50346102b25761170361065a36610615565b805190600282106106035761171782612f69565b92835115611792575b602084015260009160001901915b828110611743576040518061031f868261040a565b8061175361092060019385612a5d565b61178b6117846117738585019361176d610920868a612a5d565b906123f2565b9061177e868b612a5d565b51612ed6565b9187612a5d565b520161172e565b61179a612a2c565b611720565b5060403660031901126102b2576004358015158091036102b2576024356117c5816102a1565b6117cd6143d7565b60018060a01b0316600052600260205260406000209060ff801983541691161790556000604051f35b50346102b25761180536610bcf565b909161181e610c64610c558c969c9b979b9a989a611de5565b991561189157600019995b803b156102b25789600061030d9c61185b82966040519889978896879563d505accf60e01b8752303360048901612836565b03925af18015611884575b611871575b50612719565b8061058b61187e92611d08565b3861186b565b61188c611d58565b611866565b8499611829565b50346102b2576101003660031901126102b25760246004356118b9816102a1565b61031f82356118c7816102a1565b602060c435936118d6856102a1565b6118e160e435612009565b6118f760a43560843560643560443587866121f1565b9690956119328861191161190b8887611e3a565b90611e6a565b80976119298b8360018060a01b03998a3391166142c7565b863391166142c7565b60008360405196879586946335313c2160e11b8652166004850152165af190811561199c575b60009161197e575b50604051938493846040919493926060820195825260208201520152565b611996915060203d8111610e4d57610e3e8183611d28565b38611960565b6119a4611d58565b611958565b5060203660031901126102b2576004356119c2816102a1565b6119ca6143d7565b6001600160a01b031680156119ef57600180546001600160a01b031916919091179055005b60405163d92e233d60e01b8152600490fd5b50611a26611a1e611a11366102b7565b9694959096939193612009565b349085612038565b929091611a3281611ddd565b916001600160a01b0391611a4d9085908590339086166142c7565b600080516020614662833981519152803b156102b25761031f93602092876000611acb94600460405180948193630d0e30db60e41b83525af18015611b5c575b611b49575b50611a9d8883614355565b6040516335313c2160e11b81526001600160a01b039091166004820152938492839160009183906024820190565b0393165af1908115611b3c575b600091611b1e575b50833411611b06575b604051938493846040919493926060820195825260208201520152565b611b19611b138534612532565b336142b5565b611ae9565b611b36915060203d8111610e4d57610e3e8183611d28565b38611ae0565b611b44611d58565b611ad8565b8061058b611b5692611d08565b38611a92565b611b64611d58565b611a8d565b50611b81611b763661108b565b949092939194612009565b60008051602061466283398151915293846001600160a01b03611ba76104658488612a7f565b16036106035773c0aee478e3658e2610c5f7a4a2e1777ce9e4f2ac90611bd7611bd13683886129d4565b84613066565b9260a09586611be586612a43565b5101513410611cac575b50505083611bfc83612a43565b510151853b156102b2578261057294611c5292600061031f99600460405180948193630d0e30db60e41b83525af18015611c9f575b611c8c575b50610a11611c4860806104ed85612a43565b886111bb85612a43565b9380611c5d84612a43565b5101513411611c6d575b50613514565b611b13611c8691611c7d85612a43565b51015134612532565b38611c67565b8061058b611c9992611d08565b38611c36565b611ca7611d58565b611c31565b6112f191929450611cd59350735c69bee701ef814a2b6a3edd4b1652cb9cc5aa6f9436916129d4565b903484611ce184612a43565b51015111610bbd57388080611bef565b50634e487b7160e01b600052604160045260246000fd5b6001600160401b038111611d1b57604052565b611d23611cf1565b604052565b90601f801991011681019081106001600160401b03821117611d1b57604052565b908160209103126102b2575190565b506040513d6000823e3d90fd5b600080516020614662833981519152906001600160a01b0381168214611dbe57736015551cd911ff4685072e2793f56c841e3ab66160611b606082901b1015611db957905b81156119ef5761041b91611e6a565b611daa565b604051630bd969eb60e41b8152600490fd5b61041b9161190b91611e3a565b61190b61041b915b60008051602061466283398151915291906001600160a01b0381168314611dbe57736015551cd911ff4685072e2793f56c841e3ab66160611b606082901b1015611e345791905b82156119ef57565b90611e2c565b9091906001600160a01b0380821690841614611dbe578260601b8160601b10600014611e3457919082156119ef57565b6055916040519160601b825260601b601482015260288120743ff02bb91e38d9638984317de928b85ddf3a793cab605a1b825260158201527fe18a34eb0e04b04f7a0ac29a6e80748dca96319b42c54d679cb821dca90c630360358201522090565b6055916040519160601b825260601b60148201526028812074ff5c69bee701ef814a2b6a3edd4b1652cb9cc5aa6f60581b825260158201527f96e8ac4277198ff8b6f785478aa9a39f403cb768dd02cbee326c3e7da348845f60358201522090565b605592906001600160a01b031673c0aee478e3658e2610c5f7a4a2e1777ce9e4f2ac03611fc0577fe18a34eb0e04b04f7a0ac29a6e80748dca96319b42c54d679cb821dca90c6303907fffc0aee478e3658e2610c5f7a4a2e1777ce9e4f2ac0000000000000000000000905b6040519360601b845260601b601484015260288320908352601583015260358201522090565b7f96e8ac4277198ff8b6f785478aa9a39f403cb768dd02cbee326c3e7da348845f907fff5c69bee701ef814a2b6a3edd4b1652cb9cc5aa6f000000000000000000000090611f9a565b421161201157565b604051630407b05b60e31b8152600490fd5b908160209103126102b2575161041b816102a1565b60405163e6a4390560e01b81526001600160a01b038216600482015260008051602061466283398151915260248201529194929392916120bb919060209073c0aee478e3658e2610c5f7a4a2e1777ce9e4f2ac908281604481855afa9081156121e4575b6000916121c7575b506001600160a01b031615612141575b5050612347565b9091821580612139575b156120d3575050505090915b565b6120de8284886124c4565b9085821115612117575050906120f491846124c4565b928311612105578210612105579091565b604051638dc525d160e01b8152600490fd5b9350935050508110612127579091565b60405163ef71d09160e01b8152600490fd5b5081156120c5565b6040516364e329cb60e11b81526001600160a01b03841660048201526000805160206146628339815191526024820152908290829060449082906000905af180156121ba575b156120b457816121ab92903d106121b3575b6121a38183611d28565b810190612023565b5038806120b4565b503d612199565b6121c2611d58565b612187565b6121de9150833d85116121b3576121a38183611d28565b386120a4565b6121ec611d58565b61209c565b60405163e6a4390560e01b81526001600160a01b038281166004830152831660248201529295939493926120bb92919060209073c0aee478e3658e2610c5f7a4a2e1777ce9e4f2ac908281604481855afa9081156122f0575b6000916122d3575b506001600160a01b031615612269575b50506123f2565b6040516364e329cb60e11b81526001600160a01b03848116600483015285166024820152908290829060449082906000905af180156122c6575b1561226257816122be92903d106121b3576121a38183611d28565b503880612262565b6122ce611d58565b6122a3565b6122ea9150833d85116121b3576121a38183611d28565b38612252565b6122f8611d58565b61224a565b51906001600160701b03821682036102b257565b908160609103126102b257612325816122fd565b916040612334602084016122fd565b92015163ffffffff811681036102b25790565b600460609161236e61235882611de5565b90946001600160a01b0392909183919087611e6a565b1660405194858092630240bc6b60e21b82525afa9283156123e5575b60009081946123b3575b5081906001600160701b03809116941694169116146000146106445791565b8294506123d7915060603d81116123de575b6123cf8183611d28565b810190612311565b5093612394565b503d6123c5565b6123ed611d58565b61238a565b60049061236e61235860609483611e3a565b50634e487b7160e01b600052601160045260246000fd5b7f028f5c28f5c28f5c28f5c28f5c28f5c28f5c28f5c28f5c28f5c28f5c28f5c28f811160011661244c575b60640290565b612454612404565b612446565b600590806000190482118115151661246f570290565b612477612404565b0290565b600990806000190482118115151661246f570290565b806000190482118115151661246f570290565b81156124ae570490565b634e487b7160e01b600052601260045260246000fd5b801561250357811580156124fb575b6124e95761041b926124e491612491565b6124a4565b60405163bb55fd2760e01b8152600490fd5b5082156124d3565b604051631f2a200560e01b8152600490fd5b60028110612525575b6001190190565b61252d612404565b61251e565b81811061253d570390565b612545612404565b0390565b91908260409103126102b2576020825192015190565b61256f6000929795949396612009565b61257881611d65565b6001600160a01b03978882169591612592919033886142c7565b6040805163226bf2d160e21b81526001600160a01b03929092166004830152949092859184916024918391905af1968715612656575b6000928398612621575b50806125dd83611de5565b501691161460001461261c57945b8094861061260b57106125fb5750565b5163ef71d09160e01b8152600490fd5b8251638dc525d160e01b8152600490fd5b6125eb565b909750612645919250843d861161264f575b61263d8183611d28565b810190612549565b91909196386125d2565b503d612633565b61265e611d58565b6125c8565b90969493929591612675600093612009565b61267f8883611dd0565b9461269660018060a01b03928388169733896142c7565b6040805163226bf2d160e21b81526001600160a01b03929092166004830152959093869185916024918391905af197881561270c575b60009384996126e2575b506125dd829184611e3a565b829199506125dd945061270190873d891161264f5761263d8183611d28565b9490949991506126d6565b612714611d58565b6126cc565b6040516370a0823160e01b808252306004830152976020979096956127a6956001600160a01b038516959491908a856024818a5afa948515612829575b600095612808575b5061276b9495309361255f565b6040519889523060048a015290979096879489939092909190818180602481015b0381895afa918215610e5457600092610e27575050612532565b81036127f657836127b69261439d565b60008051602061466283398151915291823b156102b257604051632e1a7d4d60e01b8152600481018390526120d193600090829081838160248101610557565b60405163a4de03c760e01b8152600490fd5b61276b9550612823908c8d3d10610e4d57610e3e8183611d28565b9461275e565b612831611d58565b612756565b9360ff929897969360c0969260e087019a60018060a01b0380921688521660208701526040860152606085015216608083015260a08201520152565b929598919497999093969961288a610c558686611e3a565b169a156128fa576000199a5b803b156102b2578a60006106449d6128c882966040519889978896879563d505accf60e01b8752303360048901612836565b03925af180156128ed575b6128de575b50612663565b6128e790611d08565b386128d8565b6128f5611d58565b6128d3565b859a612896565b6040516370a0823160e01b80825230600483015297966020956127b6956001600160a01b03851695899561297a959194919391929091908a856024818c5afa9485156129a1575b600095612980575b5061295d9495309361255f565b6040519a8b523060048c0152998a9791508181806024810161278c565b9161439d565b61295d955061299b908c8d3d10610e4d57610e3e8183611d28565b94612950565b6129a9611d58565b612948565b6020906001600160401b0381116129c7575b60051b0190565b6129cf611cf1565b6129c0565b92916129df826129ae565b916129ed6040519384611d28565b829481845260208094019160051b81019283116102b257905b828210612a135750505050565b8380918335612a21816102a1565b815201910190612a06565b50634e487b7160e01b600052603260045260246000fd5b602090805115612a51570190565b612a59612a2c565b0190565b6020918151811015612a72575b60051b010190565b612a7a612a2c565b612a6a565b9015612a885790565b61041b612a2c565b60209160011015612a51570190565b9190811015612aaf5760051b0190565b6129cf612a2c565b3561041b816102a1565b90612acb826129ae565b604090612ada82519182611d28565b8381528093612aeb601f19916129ae565b019160005b838110612afd5750505050565b602090825160e081018181106001600160401b03821117612b53575b845260008152826000818301526000858301526000606083015260006080830152600060a0830152600060c0830152828601015201612af0565b612b5b611cf1565b612b19565b9190918251906002821061060357909260001984019190612b8083612ac1565b9460a09283612b8e88612a43565b5101526001190160005b848110612ba6575050505050565b80612bb661092060019386612a5d565b8583830191612c3d8b85612bcd610920878c612a5d565b93612bd88582611e3a565b9590916004612bf48c8060a01b03988986168a86161495611e6a565b91612c0b85612c03888a612a5d565b519015159052565b612c2d60409182612c1c898b612a5d565b516001600160a01b03909216910152565b606097889485612c1c898b612a5d565b612c4d836080612c1c898b612a5d565b51630240bc6b60e21b81529788928391165afa948515612d63575b6000948596612d3b575b505015612d2257612ce5602091612cdf612cda612cb1612cee975b8a612c98868a612a5d565b510151906001600160701b03809b169a8b911691612ed6565b9760c09889612cc0868a612a5d565b51015289612cce8589612a5d565b5101516103e8026124a4565b151590565b93612a5d565b51019015159052565b858410612cff575b50505001612b98565b612d1790612d0d858d612a5d565b510151928b612a5d565b510152388581612cf6565b612ce5602091612cdf612cda612cb1612cee9798612c8d565b8091929650612d57939550903d106123de576123cf8183611d28565b50929092933880612c72565b612d6b611d58565b612c68565b9190918251906002821061060357909260001984019190612d9083612ac1565b9460a09283612d9e88612a43565b5101526001190160005b848110612db6575050505050565b80612dc661092060019386612a5d565b8583830191612e048b85612ddd610920878c612a5d565b93612de88582611e3a565b9590916004612bf48c8060a01b03988986168a86161495611ecc565b612e14836080612c1c898b612a5d565b51630240bc6b60e21b81529788928391165afa948515612ec9575b6000948596612ea1575b505015612e8857612ce5602091612cdf612cda612cb1612e5e978a612c98868a612a5d565b858410612e6f575b50505001612da8565b612e7d90612d0d858d612a5d565b510152388581612e66565b612ce5602091612cdf612cda612cb1612e5e9798612c8d565b8091929650612ebd939550903d106123de576123cf8183611d28565b50929092933880612e39565b612ed1611d58565b612e2f565b9190918015612503576103e88084108015612f28575b6124e9576103e58381840293020292612f0583856124a4565b03612f165761041b930201906124a4565b604051631a93c68960e11b8152600490fd5b50808310612eec565b60405190604082018281106001600160401b03821117612f5c575b6040526001825260203681840137565b612f64611cf1565b612f4c565b90612f73826129ae565b612f806040519182611d28565b8281528092612f91601f19916129ae565b0190602036910137565b9190918251600191612fae838301612f69565b9460a0612fba82612a43565b510151612fc687612a43565b52600019830160005b848110612fde57505050505050565b8060c0612fec889386612a5d565b510151613003612ffc8387612a5d565b5151151590565b6000901561305c57506130428160005b868510156130555761302c60806104ed8888018b612a5d565b915b61303d60806104ed888c612a5d565b613ff7565b61304e8383018b612a5d565b5201612fcf565b889161302e565b6130429082613013565b815192916002841061060357613096600019928386019061308682612ac1565b9660c09384916001190189612a5d565b510152805b6130a55750505050565b8086858093016131b06131a4612cda61313088856130e7888d6130d26109208d612cdf6109208886612a5d565b9060046130df8383611e3a565b819691611e6a565b91613135836080612c1c8a60018060a01b03809b168b8a16149961310f8b612c038484612a5d565b61312060409788612c1c8585612a5d565b60609e8f9a8b612c1c8585612a5d565b612a5d565b51630240bc6b60e21b81529485928391165afa91821561321f575b60009586936131fa575b5050156131ec579061318d612cce925b84613175848d612a5d565b5101516001600160701b0380971696879216906132d3565b9860a0998a61319c8484612a5d565b510152612a5d565b6020612ce5848d612a5d565b600183116131c2575b5050018061309b565b6131cc9089612a5d565b510151836131e26131dc84612515565b8a612a5d565b51015238806131b9565b929061318d612cce9261316a565b80919296506132159350903d106123de576123cf8183611d28565b509093388061315a565b613227611d58565b613150565b81519291600284106106035761324c600019928386019061308682612ac1565b510152805b61325b5750505050565b80868580930161329d6131a4612cda61313088856130e7888d6132886109208d612cdf6109208886612a5d565b9060046132958383611e3a565b819691611ecc565b600183116132af575b50500180613251565b6132b99089612a5d565b510151836132c96131dc84612515565b51015238806132a6565b908115612503576103e8908181108015613326575b801561331c575b6124e95781838202029161330384846124a4565b910203612f16576103e5612a59926001940302906124a4565b50828411156132ef565b508184106132e8565b600290600219811161333f570190565b612a59612404565b8119811161333f570190565b80516000198101929160005b84811061336d575050505050565b8061348161345161338361092060019587612a5d565b61339261092086860188612a5d565b61339c8183611e3a565b9390926133b6888060a01b03958686168786161495611e6a565b80956040928351630240bc6b60e21b815260609260049184818481858a165afa9081156134e7575b60009586926134c1575b505089156134bb5793955b516370a0823160e01b81526001600160a01b0390951691850191825260209492859284928391829086010392165afa9283156134ae575b60009361348f575b50506134496001600160701b038092168093612532565b921691612ed6565b9061345b89612515565b8610156134875761347b90610d516109206134758961332f565b8b612a5d565b926134f4565b0161335f565b5088926134f4565b6134a6929350803d10610e4d57610e3e8183611d28565b903880613432565b6134b6611d58565b61342a565b956133f3565b6134dc93965080919250903d106123de576123cf8183611d28565b5093909338806133e8565b6134ef611d58565b6133de565b906120d1939260009060001461350d5750600091613ff7565b9091613ff7565b81519060005b8281106135275750505050565b602061353f816135378488612a5d565b510151151590565b61354d575b5060010161351a565b60409061355e826104ed8589612a5d565b9161356e60606104ed868a612a5d565b6001600160a01b03811660009081526002602052604090205460ff1682516370a0823160e01b808252306004808401919091526001600160a01b0385811698929791959394908d9083876024818e5afa96871561391f575b600097613900575b508851998a52838a8c81806135fd8d82019073f5bce5077908a1b7370b9ae04adc565ebd643966602083019252565b03915afa998a156138f3575b60009a6138d4575b508c87158015906138cd575b80156138c4575b613639575b5050505050505050505050613544565b958185878b8499989796958e9b73c0aee478e3658e2610c5f7a4a2e1777ce9e4f2ac91829116146000146138ba57506136b1735c69bee701ef814a2b6a3edd4b1652cb9cc5aa6f9b5b5163e6a4390560e01b81526001600160a01b039384169281019283529590921660208201528491829160400190565b0381848c165afa9182156138ad575b60009261388e575b5081166136d8575b50908c613629565b613704928289928f612ffc8f96916136f860806104ed836136fe96612a5d565b94612a5d565b9161392c565b98909589613714575b8e906136d0565b861161378157505091839161372b9330928c614030565b10613773575051908152600192919033907f8ed9d7f4b992b4476c7f5cee8895a6c9fe5a1601e771e630d67d5ed17d4656d590602090a35b903880808080808080808061370d565b90516342301c2360e01b8152fd5b60019a9950856137a461379c829996989b9a9495979b612459565b612710900490565b89119182613883575b5050156137c6575050506137c19488613c1c565b613763565b6137d261379c8761247b565b87116137e6575b5050505050505050613763565b516335ea6a7560e01b81526001600160a01b0385169281019283528592829082908190602001038173057835ad21a177dbdd3090bb1cae03eacf78fc6d5afa918215613876575b600092613859575b505011613845575b8080806137d9565b61384f9488613e22565b388080808061383d565b61386f9250803d10610e4d57610e3e8183611d28565b3880613835565b61387e611d58565b61382d565b1015905086386137ad565b6138a6919250853d87116121b3576121a38183611d28565b90386136c8565b6138b5611d58565b6136c0565b6136b1909b613682565b508a1515613624565b508361361d565b6138ec919a50843d8611610e4d57610e3e8183611d28565b9838613611565b6138fb611d58565b613609565b613918919750843d8611610e4d57610e3e8183611d28565b95386135ce565b613927611d58565b6135c6565b959392919490956000966000809760405190630240bc6b60e21b9283835260608095818560048160018060a01b03809c165afa958615613b00575b83958497613adb575b50600490604051998a9384928352165afa958615613ace575b81958297613aa6575b505050600014613a9257906139a8939291613b0d565b91949091925b82151580613a89575b6139c4575b505050505050565b6139f26139ec6139d488806143eb565b906139df878b6143eb565b9082019392019083100190565b90614400565b868111613a00575b506139bc565b869950849690613a1693959294969950036124a4565b958683109081613a80575b5080613a77575b613a52575b505083809583613a45959602019202900384026124a4565b90388080808080806139fa565b613a45949550808211600014613a6e575080955b959493613a2d565b90508095613a66565b50858110613a28565b90501538613a21565b508315156139b7565b613a9c9391613b0d565b91949091926139ae565b8091929750613ac2939650903d106123de576123cf8183611d28565b50939093943880613992565b613ad6611d58565b613989565b613af791975060049650833d85116123de576123cf8183611d28565b50969095613970565b613b08611d58565b613967565b939092936000936000936001600160701b0380809816931696620f4240918289860202988993613b3d87866124a4565b910214613b4c575b5050505050565b81169216613b65620f2ad98083860202920293826124a4565b8314613b72575b80613b45565b81811115613b6c57039450620f36889190910201915038808581613b6c565b91908251928382526000905b848210613bca575092806020939411613bbd575b601f01601f1916010190565b6000838284010152613bb1565b90602090818082850101519082860101520190613b9d565b6001600160a01b03918216815291811660208301529091166040820152606081019190915260a06080820181905261041b92910190613b91565b90613c2b929195939495614262565b73f5bce5077908a1b7370b9ae04adc565ebd643966803b156102b25760405163f1676d3760e01b8152916000918391829084908290613c71908b8b308060048701613be2565b03925af19081613d12575b50613cbf57506040519182526001600160a01b0316907f137ac09e2fb89da2cbe32562b3e674e46bba7c473b3f71b5c1bd62f7ef3232ed9080602081015b0390a2565b613ccf61379c613cd59394612459565b90612532565b6040519081526001600160a01b03919091169033907f8ed9d7f4b992b4476c7f5cee8895a6c9fe5a1601e771e630d67d5ed17d4656d590602090a3565b8061058b613d1f92611d08565b38613c7c565b9291926001600160401b038211613d6c575b60405191613d4f601f8201601f191660200184611d28565b8294818452818301116102b2578281602093846000960137010152565b613d74611cf1565b613d37565b969593929060e0880160018060a01b038092168952602060e0818b01528451809252806101008b019501926000905b838210613e0957505050505092613df7613de5613e0494613dd78560c0988c60408160009d9a039101526103d6565b908a820360608c01526103d6565b6001600160a01b039093166080890152565b86820360a0880152613b91565b930152565b8451811687529582019593820193600190910190613da8565b9194929394613e7d613e32612f31565b91613e4f87613e4085612a43565b6001600160a01b039091169052565b613e57612f31565b9388613e6286612a43565b52613e6b612f31565b956000613e7788612a43565b52614262565b92737d2768de32b0b80b7a3454c06bdac94a69ddc7a990813b156102b25760008094613ec26040519788968795869463ab9c4b5d60e01b865230923060048801613d79565b03925af19081613f1f575b50613f0f57506040519182526001600160a01b0316907f137ac09e2fb89da2cbe32562b3e674e46bba7c473b3f71b5c1bd62f7ef3232ed908060208101613cba565b613ccf61379c613cd5939461247b565b8061058b613f2c92611d08565b38613ecd565b9794919690959295737d2768de32b0b80b7a3454c06bdac94a69ddc7a99889330361089757613faa96613fa3958a61086d61085a613f9c97613f8d613f7b8f99613f9699612a7f565b359e8f95613f88876102a1565b612a7f565b35953691613d25565b97612a7f565b3592612a7f565b3590613347565b809211156105f157602092600060449281946040519363095ea7b360e01b85526004850152602484015260018060a01b03165af13d15601f3d11600160005114161716156102b257600190565b90600060a492819582956040519463022c0d9f60e01b8652600486015260248501526044840152608060648401528160848401525af150565b91809695919294939461404e6140468388611e3a565b908093611f2e565b9060018060a01b038681808a16931683149560405197630240bc6b60e21b94858a52606092838b600481898c165afa9a8b156141d2575b600090819c6141af575b508a156141a45790889392915b6001600160701b0380809e169116906140b59183612ed6565b986140bf9261439d565b6120d19b61413998614132956140f8946140e391908d1561419b5760008c91613ff7565b8a1561419457815b8b1561418c575091611f2e565b9788946040519081528281600481888a165afa90811561417f575b6000938492614159575b50508815614152578190925b16911685612ed6565b991661439d565b6000901561414b575084600091613ff7565b8591613ff7565b8190614129565b61417493945080919250903d106123de576123cf8183611d28565b50919091388061411d565b614187611d58565b614113565b905091611f2e565b80916140eb565b8b600091613ff7565b9a908893929161409c565b90506141c9919b50843d86116123de576123cf8183611d28565b509a903861408f565b6141da611d58565b614085565b60209081818403126102b2578051906001600160401b0382116102b257019180601f840112156102b2578251614214816129ae565b936142226040519586611d28565b818552838086019260051b8201019283116102b2578301905b828210614249575050505090565b8380918351614257816102a1565b81520191019061423b565b919060405192606084018481106001600160401b038211176142a8575b604052603c84526020840190604036833760601b905260601b603483015260601b604882015290565b6142b0611cf1565b61427f565b60008080809481945af1156109895750565b9060006064926020958295604051946323b872dd60e01b86526004860152602485015260448401525af13d15601f3d11600160005114161716156102b257565b6044602092600080936040519263a9059cbb60e01b845273f5bce5077908a1b7370b9ae04adc565ebd643966600485015260248401525af13d15601f3d11600160005114161716156102b257565b60446000916020936040519163a9059cbb60e01b835260048301526024820152826000805160206146628339815191525af13d15601f3d11600160005114161716156102b257565b600091826044926020956040519363a9059cbb60e01b8552600485015260248401525af13d15601f3d11600160005114161716156102b257565b6000546001600160a01b0316330361107a57565b91906000198184099202918280821091030390565b90801561453757600160801b811060071b90811b600160c01b811060061b90811b91600160e01b831060051b92831b600160f01b811060041b90811b600160f81b811060031b90811b91600160fc1b831060021b92831b95600160fe1b871060011b958695010101010101918383610100031c911b1791811b916144916144868261453d565b91613ccf8380612491565b60809380851c82861b178360011b92861c806000039084820601848306019184808085049304910401019283910693861b019482811c9380821c8086119586156144f3575b5050505050506144e8575b60011c1c90565b9060001901906144e1565b149450919290919084614510575b505050503880808080806144d6565b6fffffffffffffffffffffffffffffffff919293945080029316911b171038808080614501565b5061041b905b801561465b5761464a61464361463961462f61462561461b614611614607600160801b808a14908a1117898160071b1d6801000000000000000080821490821117908160061b1d64010000000080821490821117908160051b1d6201000080821490821117908160041b1d9161010080841490841117928360031b1d936001601086146010871117958660021b1d9660061b1b9060051b1b9060041b1b9060031b1b9060021b1b9060011b1b90600880821491111760011b1b614600818b6124a4565b0160011c90565b614600818a6124a4565b61460081896124a4565b61460081886124a4565b61460081876124a4565b61460081866124a4565b61460081856124a4565b80926124a4565b90818110614656575090565b905090565b5060009056fe000000000000000000000000c02aaa39b223fe8d0a0e5c4f27ead9083c756cc2a164736f6c634300080f000a",
    "linkReferences": {}
  },
  "methodIdentifiers": {
    "acceptOwnership()": "79ba5097",
    "addLiquidity(address,address,uint256,uint256,uint256,uint256,address,uint256)": "e8e33700",
    "addLiquidityETH(address,uint256,uint256,uint256,address,uint256)": "f305d719",
    "cancelOwnershipTransfer()": "23452b9c",
    "executeOperation(address[],uint256[],uint256[],address,bytes)": "920f5c84",
    "getAmountIn(uint256,uint256,uint256)": "85f8c259",
    "getAmountOut(uint256,uint256,uint256)": "054d50d4",
    "getAmountsIn(uint256,address[])": "1f00ca74",
    "getAmountsOut(uint256,address[])": "d06ca61f",
    "harvest(uint256,address[],address[])": "b4b0ce68",
    "isOwner()": "8f32d59b",
    "onFlashLoan(address,address,uint256,uint256,bytes)": "23e30c8b",
    "owner()": "8da5cb5b",
    "quote(uint256,uint256,uint256)": "ad615dec",
    "removeLiquidity(address,address,uint256,uint256,uint256,address,uint256)": "baa2abde",
    "removeLiquidityETH(address,uint256,uint256,uint256,address,uint256)": "02751cec",
    "removeLiquidityETHSupportingFeeOnTransferTokens(address,uint256,uint256,uint256,address,uint256)": "af2979eb",
    "removeLiquidityETHWithPermit(address,uint256,uint256,uint256,address,uint256,bool,uint8,bytes32,bytes32)": "ded9382a",
    "removeLiquidityETHWithPermitSupportingFeeOnTransferTokens(address,uint256,uint256,uint256,address,uint256,bool,uint8,bytes32,bytes32)": "5b0d5984",
    "removeLiquidityWithPermit(address,address,uint256,uint256,uint256,address,uint256,bool,uint8,bytes32,bytes32)": "2195995c",
    "swapETHForExactTokens(uint256,address[],address,uint256)": "fb3bdb41",
    "swapExactETHForTokens(uint256,address[],address,uint256)": "7ff36ab5",
    "swapExactETHForTokensSupportingFeeOnTransferTokens(uint256,address[],address,uint256)": "b6f9de95",
    "swapExactTokensForETH(uint256,uint256,address[],address,uint256)": "18cbafe5",
    "swapExactTokensForETHSupportingFeeOnTransferTokens(uint256,uint256,address[],address,uint256)": "791ac947",
    "swapExactTokensForTokens(uint256,uint256,address[],address,uint256)": "38ed1739",
    "swapExactTokensForTokensSupportingFeeOnTransferTokens(uint256,uint256,address[],address,uint256)": "5c11d795",
    "swapTokensForExactETH(uint256,uint256,address[],address,uint256)": "4a25d94a",
    "swapTokensForExactTokens(uint256,uint256,address[],address,uint256)": "8803dbee",
    "transferOwnership(address)": "f2fde38b",
    "updateAaveAsset(bool,address)": "dc1efb41",
    "updateAllAaveAssets()": "31e63459"
  },
  "id": 13
}