{
  "abi": [
    {
      "inputs": [
        {
          "internalType": "address",
          "name": "_router",
          "type": "address"
        }
      ],
      "stateMutability": "nonpayable",
      "type": "constructor"
    },
    {
      "inputs": [],
      "name": "IdenticalAddresses",
      "type": "error"
    },
    {
      "inputs": [],
      "name": "InsufficientAAmount",
      "type": "error"
    },
    {
      "inputs": [],
      "name": "InsufficientAllowance",
      "type": "error"
    },
    {
      "inputs": [],
      "name": "InsufficientBAmount",
      "type": "error"
    },
    {
      "inputs": [],
      "name": "InsufficientLiquidity",
      "type": "error"
    },
    {
      "inputs": [],
      "name": "InsufficientLiquidity",
      "type": "error"
    },
    {
      "inputs": [],
      "name": "InsufficientOutputAmount",
      "type": "error"
    },
    {
      "inputs": [],
      "name": "InvalidPath",
      "type": "error"
    },
    {
      "inputs": [],
      "name": "Overflow",
      "type": "error"
    },
    {
      "inputs": [],
      "name": "TransferFailed",
      "type": "error"
    },
    {
      "inputs": [],
      "name": "ZeroAddress",
      "type": "error"
    },
    {
      "inputs": [],
      "name": "ZeroAmount",
      "type": "error"
    },
    {
      "inputs": [],
      "name": "router",
      "outputs": [
        {
          "internalType": "contract IOpenMevRouter",
          "name": "",
          "type": "address"
        }
      ],
      "stateMutability": "view",
      "type": "function"
    },
    {
      "inputs": [
        {
          "internalType": "address",
          "name": "tokenA",
          "type": "address"
        },
        {
          "internalType": "address",
          "name": "tokenB",
          "type": "address"
        },
        {
          "internalType": "uint256",
          "name": "amountA",
          "type": "uint256"
        },
        {
          "internalType": "uint256",
          "name": "amountBMin",
          "type": "uint256"
        }
      ],
      "name": "swapAndStakeLiquidity",
      "outputs": [
        {
          "internalType": "uint256",
          "name": "liquidity",
          "type": "uint256"
        }
      ],
      "stateMutability": "nonpayable",
      "type": "function"
    },
    {
      "inputs": [
        {
          "internalType": "address",
          "name": "tokenB",
          "type": "address"
        },
        {
          "internalType": "uint256",
          "name": "amountBMin",
          "type": "uint256"
        }
      ],
      "name": "swapETHAndStakeLiquidity",
      "outputs": [
        {
          "internalType": "uint256",
          "name": "liquidity",
          "type": "uint256"
        }
      ],
      "stateMutability": "payable",
      "type": "function"
    },
    {
      "inputs": [
        {
          "internalType": "address",
          "name": "pairAddress",
          "type": "address"
        },
        {
          "internalType": "uint256",
          "name": "withdrawAmount",
          "type": "uint256"
        },
        {
          "internalType": "address",
          "name": "desiredToken",
          "type": "address"
        },
        {
          "internalType": "uint256",
          "name": "desiredTokenOutMin",
          "type": "uint256"
        }
      ],
      "name": "withdrawLiquidityAndSwap",
      "outputs": [
        {
          "internalType": "uint256",
          "name": "amountOut",
          "type": "uint256"
        }
      ],
      "stateMutability": "nonpayable",
      "type": "function"
    },
    {
      "stateMutability": "payable",
      "type": "receive"
    }
  ],
  "bytecode": {
    "object": "0x60a03461008157601f61175238819003918201601f19168301916001600160401b038311848410176100865780849260209460405283398101031261008157516001600160a01b03811690819003610081576080526040516116b5908161009d82396080518181816101e701528181610518015281816108110152610b1e0152f35b600080fd5b634e487b7160e01b600052604160045260246000fdfe608060408181526004908136101561002a575b505050361561002057600080fd5b610028610b4d565b005b600090813560e01c93846364551df31461008a57505050508063942f0c2714610081578063ef409f90146100785763f887ea401461006b575b388080610012565b610073610b07565b610063565b506100736106a2565b506100736103d8565b346103be57806003193601126103be578335936100a6856103c2565b6024356100b2816103c2565b6044356107d081106103b057636eb1769f60e11b8452336084523060a4526020936001600160a01b03908882169083908781604481865afa9081156103a3575b8a91610377575b5010610367578461010a858b61129f565b938385169a60608c8b5194858092630240bc6b60e21b82525afa92831561035a575b8b908c94610326575b506001600160701b0380911693169480881695868610600014610311576101679061016086866114f2565b9586611425565b975b60643589106103015785886102919f98938f9d9c98978f978f8f9e998161026f9f9a808f9161024d9f8f61022b8a976102489f896102429e6101e58e8c986101dc61020e966101d36101c49d6101bd610c6a565b9e8f610ca5565b6001600160a01b039091169052565b6101c48d610cc8565b309033906115e0565b7f0000000000000000000000000000000000000000000000000000000000000000168098610ec4565b516338ed173960e01b815297889687958694429330938701610d94565b03925af180156102f4575b6102d1575b5050610d03565b9161166e565b61166e565b86516335313c2160e11b81523391810191825295869384928391602090910190565b03925af19384156102c4575b93610295575b5050519081529081906020820190565b0390f35b6102b5929350803d106102bd575b6102ad8183610bdb565b810190610c34565b908380610281565b503d6102a3565b6102cc610c15565b61027b565b6102ec913d8091833e6102e48183610bdb565b810190610d1a565b508f3861023b565b6102fc610c15565b610236565b8b516342301c2360e01b81528a90fd5b936103209061016086866114f2565b97610169565b905061034a91935060603d8111610353575b6103428183610bdb565b810190611269565b5092908d610135565b503d610338565b610362610c15565b61012c565b86516313be252b60e01b81528590fd5b610395915088903d8a1161039b575b61038f82610bb8565b01610c22565b8b6100f9565b3d9150610386565b6103ab610c15565b6100f2565b638dc525d160e01b84528284fd5b8280fd5b6001600160a01b038116036103d357565b600080fd5b506040806003193601126103d35760048035916103f4836103c2565b6107d034106106955761040683611355565b8151630240bc6b60e21b815290936001600160a01b0393909190848616906060838281855afa928315610688575b6000908194610664575b50848716976001600160701b039182169473c02aaa39b223fe8d0a0e5c4f27ead9083c756cc292168983101561064f576104839061047c87346114f2565b9687611425565b905b602435821061063f576104c8610499610c6a565b976104bf6104a68a610ca5565b73c02aaa39b223fe8d0a0e5c4f27ead9083c756cc29052565b6101c489610cc8565b823b156103d357610291996102486105796105a198610562600087819f8f9060209f84908e928361057f9f8490875192838092630d0e30db60e41b825234905af18015610632575b610619575b507f000000000000000000000000000000000000000000000000000000000000000016936105438986610dfe565b516338ed173960e01b815296879586948593429230928d908701610d94565b03925af1801561060c575b6105f1575b5034610d03565b83611620565b84516335313c2160e11b81523391810191825295869384928391602090910190565b03925af19182156105e4575b6000926105c4575b50519081529081906020820190565b6105dd91925060203d81116102bd576102ad8183610bdb565b90386105b5565b6105ec610c15565b6105ad565b610605903d8f8190833e6102e48183610bdb565b5038610572565b610614610c15565b61056d565b8061062661062c92610b97565b80610afc565b38610515565b61063a610c15565b610510565b87516342301c2360e01b81528490fd5b9461065e9061047c87346114f2565b90610485565b905061067f91935060603d8111610353576103428183610bdb565b5092903861043e565b610690610c15565b610434565b51638dc525d160e01b8152fd5b50346103d35760803660031901126103d357600480356106c1816103c2565b60243590604435906106d2826103c2565b60408051630dfe168160e01b815290936001600160a01b0383811694602094919390926064359286838b818b5afa928315610aef575b600093610ad0575b50885163d21220a760e01b81529187838c818c5afa928315610ac3575b600093610a94575b50868616988a8c8b8a8816141580610a88575b610a7a579051636eb1769f60e11b81523391810191825230602083015283918b90829081906040010381865afa908115610a6d575b600091610a50575b5010610a4057926107b56102919c96936107ae61090b9c9a97946107e29c9a97309033906115e0565b3090610f29565b8085168803610a385750925b6107c9610c6a565b9788936107d9866101c487610ca5565b6101c485610cc8565b6107fb6107ee84610ca5565b516001600160a01b031690565b8a516370a0823160e01b808252308883019081527f0000000000000000000000000000000000000000000000000000000000000000851697909416949093909261086792918891908b908490819060200103818a5afa928315610a2b575b600093610a0c575b50610ec4565b8a5182815230878201908152600099918d918a90829081906020010381865afa9081156109ff575b8b916109e2575b508311610971575b51928352505030858201908152909186918391908290819060200103915afa948515610964575b600095610942575b505060008094956108f58a51978896879586946338ed173960e01b8652429330938701610d94565b03925af18015610935575b61091a575b506110a0565b90519081529081906020820190565b61092e903d806000833e6102e48183610bdb565b5038610905565b61093d610c15565b610900565b6000955085918161095e92903d106102bd576102ad8183610bdb565b946108cd565b61096c610c15565b6108c5565b5183815230818901908152939989946109ad94919391929186918391908290819060200103915afa9283156109d5575b926109b6575b50610d03565b9690388b61089e565b6109ce919250843d86116102bd576102ad8183610bdb565b90386109a7565b6109dd610c15565b6109a1565b6109f991508a3d8c116102bd576102ad8183610bdb565b38610896565b610a07610c15565b61088f565b610a249193508b3d8d116102bd576102ad8183610bdb565b9138610861565b610a33610c15565b610859565b9050926107c1565b8a516313be252b60e01b81528c90fd5b610a6791508b3d8d116102bd576102ad8183610bdb565b38610785565b610a75610c15565b61077d565b90516320db826760e01b8152fd5b508b8a87161415610748565b610ab5919350883d8a11610abc575b610aad8183610bdb565b810190610bfd565b9138610735565b503d610aa3565b610acb610c15565b61072d565b610ae8919350873d8911610abc57610aad8183610bdb565b9138610710565b610af7610c15565b610708565b60009103126103d357565b50346103d35760003660031901126103d3576040517f00000000000000000000000000000000000000000000000000000000000000006001600160a01b03168152602090f35b73c02aaa39b223fe8d0a0e5c4f27ead9083c756cc23303610b6a57565b634e487b7160e01b600052600160045260246000fd5b50634e487b7160e01b600052604160045260246000fd5b67ffffffffffffffff8111610bab57604052565b610bb3610b80565b604052565b601f80199101166080016080811067ffffffffffffffff821117610bab57604052565b90601f8019910116810190811067ffffffffffffffff821117610bab57604052565b908160209103126103d35751610c12816103c2565b90565b506040513d6000823e3d90fd5b602090607f1901126103d35760805190565b908160209103126103d3575190565b60209067ffffffffffffffff8111610c5d575b60051b0190565b610c65610b80565b610c56565b604051906060820182811067ffffffffffffffff821117610c98575b60405260028252604082602036910137565b610ca0610b80565b610c86565b805115610cb25760200190565b634e487b7160e01b600052603260045260246000fd5b805160011015610cb25760400190565b8051821015610cb25760209160051b010190565b50634e487b7160e01b600052601160045260246000fd5b818110610d0e570390565b610d16610cec565b0390565b60209081818403126103d35780519067ffffffffffffffff82116103d357019180601f840112156103d3578251610d5081610c43565b93610d5e6040519586610bdb565b818552838086019260051b8201019283116103d3578301905b828210610d85575050505090565b81518152908301908301610d77565b9291909594939560a084019084526020918285015260a0604085015282518091528160c0850193019160005b828110610de15750505050906080919460018060a01b031660608201520152565b83516001600160a01b031685529381019392810192600101610dc0565b604051636eb1769f60e11b81523060048201526001600160a01b038216602482015290919073c02aaa39b223fe8d0a0e5c4f27ead9083c756cc2908290602081604481865afa908115610eb7575b600091610e99575b5010610e5f57505050565b602092600060449281946040519363095ea7b360e01b8552600485015260248401525af13d15601f3d11600160005114161716156103d357565b610eb1915060203d81116102bd576102ad8183610bdb565b38610e54565b610ebf610c15565b610e4c565b604051636eb1769f60e11b81523060048201526001600160a01b03838116602483015292939291909116908290602081604481865afa908115610eb757600091610e99575010610e5f57505050565b91908260409103126103d3576020825192015190565b604080516370a0823160e01b81523060048201526000939192610fa2926001600160a01b038216929091610f779190602082602481885afa91821561100c575b8892610fec575b508461166e565b835163226bf2d160e21b81526001600160a01b03909116600482015293849283919082906024820190565b03925af18015610fdf575b610fb45750565b610fd49060403d8111610fd8575b610fcc8183610bdb565b810190610f13565b5050565b503d610fc2565b610fe7610c15565b610fad565b61100591925060203d81116102bd576102ad8183610bdb565b9038610f70565b611014610c15565b610f69565b604051906000602083019280841067ffffffffffffffff851117611045575b8360405281815292369037565b61104d610b80565b611038565b3d1561109b573d9067ffffffffffffffff821161108e575b60405191611082601f8201601f191660200184610bdb565b82523d6000602084013e565b611096610b80565b61106a565b606090565b906000916000815181925b8184106110b85750505050565b90919294506110dc6110d06110d06107ee8885610cd8565b6001600160a01b031690565b604080516370a0823160e01b81523060048083019190915290979290919060209081908a9060249082905afa988915611248575b8799611229575b50888061112e575b505050506001019291906110ab565b73c02aaa39b223fe8d0a0e5c4f27ead9083c756cc2806001600160a01b036111596107ee898b610cd8565b160361120057803b156111fc5791816111918a809594819589838a51809681958294632e1a7d4d60e01b845283019190602083019252565b03925af180156111ef575b6111dc575b506111aa611019565b8051920190335af16111ba611052565b50156111cf5750506001905b9038808061111f565b516312171d8360e31b8152fd5b806106266111e992610b97565b386111a1565b6111f7610c15565b61119c565b8880fd5b509050839250611224915061121d6110d06107ee60019688610cd8565b339061166e565b6111c6565b81611241929a503d8b116102bd576102ad8183610bdb565b9738611117565b611250610c15565b611110565b51906001600160701b03821682036103d357565b908160609103126103d35761127d81611255565b91604061128c60208401611255565b92015163ffffffff811681036103d35790565b6001600160a01b0381811690831614611343578160601b8160601b1060001461133d575b801561132b576055916040519160601b825260601b601482015260288120743ff02bb91e38d9638984317de928b85ddf3a793cab605a1b825260158201527fe18a34eb0e04b04f7a0ac29a6e80748dca96319b42c54d679cb821dca90c630360358201522090565b60405163d92e233d60e01b8152600490fd5b906112c3565b604051630bd969eb60e41b8152600490fd5b73c02aaa39b223fe8d0a0e5c4f27ead9083c756cc26001600160a01b038216811461134357606082901b736015551cd911ff4685072e2793f56c841e3ab66160611b101561133d57801561132b576055916040519160601b825260601b601482015260288120743ff02bb91e38d9638984317de928b85ddf3a793cab605a1b825260158201527fe18a34eb0e04b04f7a0ac29a6e80748dca96319b42c54d679cb821dca90c630360358201522090565b811561140f570490565b634e487b7160e01b600052601260045260246000fd5b9190918015611492576103e88084108015611489575b611477576103e583818402930202926114548385611405565b0361146557610c1293020190611405565b604051631a93c68960e11b8152600490fd5b60405163bb55fd2760e01b8152600490fd5b5080831061143b565b604051631f2a200560e01b8152600490fd5b6107cd9080600019048211811515166114bb570290565b6114c3610cec565b0290565b80600019048211811515166114bb570290565b811981116114e6570190565b6114ee610cec565b0190565b6115309061152a90623cda206000198215158382048311166115d3575b85623cda2991048111861515166115c6575b850291026114da565b826114c7565b90600060038311156115a757506001828181811c600119811161159a575b0191905b84831061157a57505050610c129161156c611572926114a4565b90610d03565b6107ca900490565b909193506115918461158c8184611405565b6114da565b821c9190611552565b6115a2610cec565b61154e565b61157291610c12936115bd575b61156c906114a4565b600191506115b4565b6115ce610cec565b611521565b6115db610cec565b61150f565b9060006064926020958295604051946323b872dd60e01b86526004860152602485015260448401525af13d15601f3d11600160005114161716156103d357565b60446000916020936040519163a9059cbb60e01b8352600483015260248201528273c02aaa39b223fe8d0a0e5c4f27ead9083c756cc25af13d15601f3d11600160005114161716156103d357565b600091826044926020956040519363a9059cbb60e01b8552600485015260248401525af13d15601f3d11600160005114161716156103d35756fea164736f6c634300080f000a",
    "linkReferences": {}
  },
  "methodIdentifiers": {
    "router()": "f887ea40",
    "swapAndStakeLiquidity(address,address,uint256,uint256)": "64551df3",
    "swapETHAndStakeLiquidity(address,uint256)": "942f0c27",
    "withdrawLiquidityAndSwap(address,uint256,address,uint256)": "ef409f90"
  },
  "id": 14
}